{
  "_format": "hh-sol-artifact-1",
  "contractName": "Helper",
  "sourceName": "contracts/main.sol",
  "abi": [
    {
      "inputs": [],
      "stateMutability": "nonpayable",
      "type": "constructor"
    },
    {
      "anonymous": false,
      "inputs": [
        {
          "indexed": true,
          "internalType": "address",
          "name": "previousOwner",
          "type": "address"
        },
        {
          "indexed": true,
          "internalType": "address",
          "name": "newOwner",
          "type": "address"
        }
      ],
      "name": "OwnershipTransferred",
      "type": "event"
    },
    {
      "inputs": [],
      "name": "admin",
      "outputs": [
        {
          "internalType": "address payable",
          "name": "",
          "type": "address"
        }
      ],
      "stateMutability": "view",
      "type": "function"
    },
    {
      "inputs": [
        {
          "internalType": "string",
          "name": "_filmName",
          "type": "string"
        },
        {
          "internalType": "uint32",
          "name": "_startDate",
          "type": "uint32"
        },
        {
          "internalType": "string",
          "name": "_uri",
          "type": "string"
        }
      ],
      "name": "createNewTicket",
      "outputs": [],
      "stateMutability": "nonpayable",
      "type": "function"
    },
    {
      "inputs": [],
      "name": "getBalance",
      "outputs": [
        {
          "internalType": "uint256",
          "name": "",
          "type": "uint256"
        }
      ],
      "stateMutability": "view",
      "type": "function"
    },
    {
      "inputs": [
        {
          "internalType": "string",
          "name": "_filmName",
          "type": "string"
        }
      ],
      "name": "getTicket",
      "outputs": [
        {
          "internalType": "contract Ticket",
          "name": "",
          "type": "address"
        }
      ],
      "stateMutability": "view",
      "type": "function"
    },
    {
      "inputs": [
        {
          "internalType": "string",
          "name": "_filmName",
          "type": "string"
        }
      ],
      "name": "mint",
      "outputs": [],
      "stateMutability": "payable",
      "type": "function"
    },
    {
      "inputs": [],
      "name": "owner",
      "outputs": [
        {
          "internalType": "address",
          "name": "",
          "type": "address"
        }
      ],
      "stateMutability": "view",
      "type": "function"
    },
    {
      "inputs": [],
      "name": "renounceOwnership",
      "outputs": [],
      "stateMutability": "nonpayable",
      "type": "function"
    },
    {
      "inputs": [
        {
          "internalType": "address",
          "name": "newOwner",
          "type": "address"
        }
      ],
      "name": "transferOwnership",
      "outputs": [],
      "stateMutability": "nonpayable",
      "type": "function"
    },
    {
      "inputs": [],
      "name": "withdraw",
      "outputs": [],
      "stateMutability": "nonpayable",
      "type": "function"
    }
  ],
  "bytecode": "0x608060405234801561001057600080fd5b5061002d61002261007360201b60201c565b61007b60201b60201c565b33600160006101000a81548173ffffffffffffffffffffffffffffffffffffffff021916908373ffffffffffffffffffffffffffffffffffffffff16021790555061013f565b600033905090565b60008060009054906101000a900473ffffffffffffffffffffffffffffffffffffffff169050816000806101000a81548173ffffffffffffffffffffffffffffffffffffffff021916908373ffffffffffffffffffffffffffffffffffffffff1602179055508173ffffffffffffffffffffffffffffffffffffffff168173ffffffffffffffffffffffffffffffffffffffff167f8be0079c531659141344cd1fd0a4f28419497f9722a3daafe3b4186f6b6457e060405160405180910390a35050565b6141648061014e6000396000f3fe608060405260043610620000925760003560e01c8063715018a61162000061578063715018a614620001535780638da5cb5b146200016d578063d85d3d27146200019d578063f2fde38b14620001bd578063f851a44014620001eb5762000092565b806312065fe014620000975780631234cacb14620000c75780633ccfd60b14620000f557806351f7b443146200010f575b600080fd5b348015620000a457600080fd5b50620000af6200021b565b604051620000be919062000707565b60405180910390f35b348015620000d457600080fd5b50620000f36004803603810190620000ed9190620008db565b62000225565b005b3480156200010257600080fd5b506200010d620002d5565b005b3480156200011c57600080fd5b506200013b600480360381019062000135919062000975565b62000353565b6040516200014a919062000a51565b60405180910390f35b3480156200016057600080fd5b506200016b6200039d565b005b3480156200017a57600080fd5b5062000185620003b5565b60405162000194919062000a93565b60405180910390f35b620001bb6004803603810190620001b5919062000975565b620003de565b005b348015620001ca57600080fd5b50620001e96004803603810190620001e3919062000ae1565b620004dd565b005b348015620001f857600080fd5b506200020362000567565b60405162000212919062000b38565b60405180910390f35b6000600254905090565b6200022f6200058d565b60008383836040516200024290620006de565b620002509392919062000bf9565b604051809103906000f0801580156200026d573d6000803e3d6000fd5b5090508060038560405162000283919062000c86565b908152602001604051809103902060006101000a81548173ffffffffffffffffffffffffffffffffffffffff021916908373ffffffffffffffffffffffffffffffffffffffff16021790555050505050565b620002df6200058d565b600160009054906101000a900473ffffffffffffffffffffffffffffffffffffffff1673ffffffffffffffffffffffffffffffffffffffff166108fc479081150290604051600060405180830381858888f1935050505015801562000348573d6000803e3d6000fd5b506000600281905550565b600060038260405162000367919062000c86565b908152602001604051809103902060009054906101000a900473ffffffffffffffffffffffffffffffffffffffff169050919050565b620003a76200058d565b620003b3600062000612565b565b60008060009054906101000a900473ffffffffffffffffffffffffffffffffffffffff16905090565b662386f26fc100003410156200042b576040517f08c379a0000000000000000000000000000000000000000000000000000000008152600401620004229062000cef565b60405180910390fd5b6003816040516200043d919062000c86565b908152602001604051809103902060009054906101000a900473ffffffffffffffffffffffffffffffffffffffff1673ffffffffffffffffffffffffffffffffffffffff166340d097c3336040518263ffffffff1660e01b8152600401620004a6919062000a93565b600060405180830381600087803b158015620004c157600080fd5b505af1158015620004d6573d6000803e3d6000fd5b5050505050565b620004e76200058d565b600073ffffffffffffffffffffffffffffffffffffffff168173ffffffffffffffffffffffffffffffffffffffff160362000559576040517f08c379a0000000000000000000000000000000000000000000000000000000008152600401620005509062000d87565b60405180910390fd5b620005648162000612565b50565b600160009054906101000a900473ffffffffffffffffffffffffffffffffffffffff1681565b62000597620006d6565b73ffffffffffffffffffffffffffffffffffffffff16620005b7620003b5565b73ffffffffffffffffffffffffffffffffffffffff161462000610576040517f08c379a0000000000000000000000000000000000000000000000000000000008152600401620006079062000df9565b60405180910390fd5b565b60008060009054906101000a900473ffffffffffffffffffffffffffffffffffffffff169050816000806101000a81548173ffffffffffffffffffffffffffffffffffffffff021916908373ffffffffffffffffffffffffffffffffffffffff1602179055508173ffffffffffffffffffffffffffffffffffffffff168173ffffffffffffffffffffffffffffffffffffffff167f8be0079c531659141344cd1fd0a4f28419497f9722a3daafe3b4186f6b6457e060405160405180910390a35050565b600033905090565b6133138062000e1c83390190565b6000819050919050565b6200070181620006ec565b82525050565b60006020820190506200071e6000830184620006f6565b92915050565b6000604051905090565b600080fd5b600080fd5b600080fd5b600080fd5b6000601f19601f8301169050919050565b7f4e487b7100000000000000000000000000000000000000000000000000000000600052604160045260246000fd5b6200078d8262000742565b810181811067ffffffffffffffff82111715620007af57620007ae62000753565b5b80604052505050565b6000620007c462000724565b9050620007d2828262000782565b919050565b600067ffffffffffffffff821115620007f557620007f462000753565b5b620008008262000742565b9050602081019050919050565b82818337600083830152505050565b6000620008336200082d84620007d7565b620007b8565b9050828152602081018484840111156200085257620008516200073d565b5b6200085f8482856200080d565b509392505050565b600082601f8301126200087f576200087e62000738565b5b8135620008918482602086016200081c565b91505092915050565b600063ffffffff82169050919050565b620008b5816200089a565b8114620008c157600080fd5b50565b600081359050620008d581620008aa565b92915050565b600080600060608486031215620008f757620008f66200072e565b5b600084013567ffffffffffffffff81111562000918576200091762000733565b5b620009268682870162000867565b93505060206200093986828701620008c4565b925050604084013567ffffffffffffffff8111156200095d576200095c62000733565b5b6200096b8682870162000867565b9150509250925092565b6000602082840312156200098e576200098d6200072e565b5b600082013567ffffffffffffffff811115620009af57620009ae62000733565b5b620009bd8482850162000867565b91505092915050565b600073ffffffffffffffffffffffffffffffffffffffff82169050919050565b6000819050919050565b600062000a1162000a0b62000a0584620009c6565b620009e6565b620009c6565b9050919050565b600062000a2582620009f0565b9050919050565b600062000a398262000a18565b9050919050565b62000a4b8162000a2c565b82525050565b600060208201905062000a68600083018462000a40565b92915050565b600062000a7b82620009c6565b9050919050565b62000a8d8162000a6e565b82525050565b600060208201905062000aaa600083018462000a82565b92915050565b62000abb8162000a6e565b811462000ac757600080fd5b50565b60008135905062000adb8162000ab0565b92915050565b60006020828403121562000afa5762000af96200072e565b5b600062000b0a8482850162000aca565b91505092915050565b600062000b2082620009c6565b9050919050565b62000b328162000b13565b82525050565b600060208201905062000b4f600083018462000b27565b92915050565b600081519050919050565b600082825260208201905092915050565b60005b8381101562000b9157808201518184015260208101905062000b74565b8381111562000ba1576000848401525b50505050565b600062000bb48262000b55565b62000bc0818562000b60565b935062000bd281856020860162000b71565b62000bdd8162000742565b840191505092915050565b62000bf3816200089a565b82525050565b6000606082019050818103600083015262000c15818662000ba7565b905062000c26602083018562000be8565b818103604083015262000c3a818462000ba7565b9050949350505050565b600081905092915050565b600062000c5c8262000b55565b62000c68818562000c44565b935062000c7a81856020860162000b71565b80840191505092915050565b600062000c94828462000c4f565b915081905092915050565b7f6d6f6e6579206973206e6f7420656e6f75676800000000000000000000000000600082015250565b600062000cd760138362000b60565b915062000ce48262000c9f565b602082019050919050565b6000602082019050818103600083015262000d0a8162000cc8565b9050919050565b7f4f776e61626c653a206e6577206f776e657220697320746865207a65726f206160008201527f6464726573730000000000000000000000000000000000000000000000000000602082015250565b600062000d6f60268362000b60565b915062000d7c8262000d11565b604082019050919050565b6000602082019050818103600083015262000da28162000d60565b9050919050565b7f4f776e61626c653a2063616c6c6572206973206e6f7420746865206f776e6572600082015250565b600062000de160208362000b60565b915062000dee8262000da9565b602082019050919050565b6000602082019050818103600083015262000e148162000dd2565b905091905056fe60806040526000600b553480156200001657600080fd5b50604051620033133803806200331383398181016040528101906200003c9190620004b4565b6040518060400160405280601681526020017f50617269627563696e657665727365207469636b6574000000000000000000008152506040518060400160405280600481526020017f50524254000000000000000000000000000000000000000000000000000000008152508160009080519060200190620000c092919062000226565b508060019080519060200190620000d992919062000226565b505050620000fc620000f06200015860201b60201c565b6200016060201b60201c565b82600790805190602001906200011492919062000226565b5081600860006101000a81548163ffffffff021916908363ffffffff16021790555080600a90805190602001906200014e92919062000226565b50505050620005b2565b600033905090565b6000600660009054906101000a900473ffffffffffffffffffffffffffffffffffffffff16905081600660006101000a81548173ffffffffffffffffffffffffffffffffffffffff021916908373ffffffffffffffffffffffffffffffffffffffff1602179055508173ffffffffffffffffffffffffffffffffffffffff168173ffffffffffffffffffffffffffffffffffffffff167f8be0079c531659141344cd1fd0a4f28419497f9722a3daafe3b4186f6b6457e060405160405180910390a35050565b82805462000234906200057d565b90600052602060002090601f016020900481019282620002585760008555620002a4565b82601f106200027357805160ff1916838001178555620002a4565b82800160010185558215620002a4579182015b82811115620002a357825182559160200191906001019062000286565b5b509050620002b39190620002b7565b5090565b5b80821115620002d2576000816000905550600101620002b8565b5090565b6000604051905090565b600080fd5b600080fd5b600080fd5b600080fd5b6000601f19601f8301169050919050565b7f4e487b7100000000000000000000000000000000000000000000000000000000600052604160045260246000fd5b6200033f82620002f4565b810181811067ffffffffffffffff8211171562000361576200036062000305565b5b80604052505050565b600062000376620002d6565b905062000384828262000334565b919050565b600067ffffffffffffffff821115620003a757620003a662000305565b5b620003b282620002f4565b9050602081019050919050565b60005b83811015620003df578082015181840152602081019050620003c2565b83811115620003ef576000848401525b50505050565b60006200040c620004068462000389565b6200036a565b9050828152602081018484840111156200042b576200042a620002ef565b5b62000438848285620003bf565b509392505050565b600082601f830112620004585762000457620002ea565b5b81516200046a848260208601620003f5565b91505092915050565b600063ffffffff82169050919050565b6200048e8162000473565b81146200049a57600080fd5b50565b600081519050620004ae8162000483565b92915050565b600080600060608486031215620004d057620004cf620002e0565b5b600084015167ffffffffffffffff811115620004f157620004f0620002e5565b5b620004ff8682870162000440565b935050602062000512868287016200049d565b925050604084015167ffffffffffffffff811115620005365762000535620002e5565b5b620005448682870162000440565b9150509250925092565b7f4e487b7100000000000000000000000000000000000000000000000000000000600052602260045260246000fd5b600060028204905060018216806200059657607f821691505b602082108103620005ac57620005ab6200054e565b5b50919050565b612d5180620005c26000396000f3fe608060405234801561001057600080fd5b506004361061014d5760003560e01c80636add2922116100c3578063a22cb4651161007c578063a22cb4651461038e578063ab5b4456146103aa578063b88d4fde146103c6578063c87b56dd146103e2578063e985e9c514610412578063f2fde38b146104425761014d565b80636add2922146102dc57806370a08231146102fa578063714c53981461032a578063715018a6146103485780638da5cb5b1461035257806395d89b41146103705761014d565b806317d70f7c1161011557806317d70f7c1461020a57806323b872dd14610228578063336ccba51461024457806340d097c31461027457806342842e0e146102905780636352211e146102ac5761014d565b806301ffc9a71461015257806306fdde0314610182578063081812fc146101a0578063095ea7b3146101d05780630b97bc86146101ec575b600080fd5b61016c60048036038101906101679190611e0b565b61045e565b6040516101799190611e53565b60405180910390f35b61018a610540565b6040516101979190611f07565b60405180910390f35b6101ba60048036038101906101b59190611f5f565b6105d2565b6040516101c79190611fcd565b60405180910390f35b6101ea60048036038101906101e59190612014565b610618565b005b6101f461072f565b6040516102019190612073565b60405180910390f35b610212610745565b60405161021f919061209d565b60405180910390f35b610242600480360381019061023d91906120b8565b61074b565b005b61025e60048036038101906102599190611f5f565b6107ab565b60405161026b9190611e53565b60405180910390f35b61028e6004803603810190610289919061210b565b6107cb565b005b6102aa60048036038101906102a591906120b8565b6107fa565b005b6102c660048036038101906102c19190611f5f565b61081a565b6040516102d39190611fcd565b60405180910390f35b6102e46108a0565b6040516102f19190611f07565b60405180910390f35b610314600480360381019061030f919061210b565b61092e565b604051610321919061209d565b60405180910390f35b6103326109e5565b60405161033f9190611f07565b60405180910390f35b610350610a77565b005b61035a610a8b565b6040516103679190611fcd565b60405180910390f35b610378610ab5565b6040516103859190611f07565b60405180910390f35b6103a860048036038101906103a39190612164565b610b47565b005b6103c460048036038101906103bf9190611f5f565b610b5d565b005b6103e060048036038101906103db91906122d9565b610b8c565b005b6103fc60048036038101906103f79190611f5f565b610bee565b6040516104099190611f07565b60405180910390f35b61042c6004803603810190610427919061235c565b610c56565b6040516104399190611e53565b60405180910390f35b61045c6004803603810190610457919061210b565b610cea565b005b60007f80ac58cd000000000000000000000000000000000000000000000000000000007bffffffffffffffffffffffffffffffffffffffffffffffffffffffff1916827bffffffffffffffffffffffffffffffffffffffffffffffffffffffff1916148061052957507f5b5e139f000000000000000000000000000000000000000000000000000000007bffffffffffffffffffffffffffffffffffffffffffffffffffffffff1916827bffffffffffffffffffffffffffffffffffffffffffffffffffffffff1916145b80610539575061053882610d6d565b5b9050919050565b60606000805461054f906123cb565b80601f016020809104026020016040519081016040528092919081815260200182805461057b906123cb565b80156105c85780601f1061059d576101008083540402835291602001916105c8565b820191906000526020600020905b8154815290600101906020018083116105ab57829003601f168201915b5050505050905090565b60006105dd82610dd7565b6004600083815260200190815260200160002060009054906101000a900473ffffffffffffffffffffffffffffffffffffffff169050919050565b60006106238261081a565b90508073ffffffffffffffffffffffffffffffffffffffff168373ffffffffffffffffffffffffffffffffffffffff1603610693576040517f08c379a000000000000000000000000000000000000000000000000000000000815260040161068a9061246e565b60405180910390fd5b8073ffffffffffffffffffffffffffffffffffffffff166106b2610e22565b73ffffffffffffffffffffffffffffffffffffffff1614806106e157506106e0816106db610e22565b610c56565b5b610720576040517f08c379a000000000000000000000000000000000000000000000000000000000815260040161071790612500565b60405180910390fd5b61072a8383610e2a565b505050565b600860009054906101000a900463ffffffff1681565b600b5481565b61075c610756610e22565b82610ee3565b61079b576040517f08c379a000000000000000000000000000000000000000000000000000000000815260040161079290612592565b60405180910390fd5b6107a6838383610f78565b505050565b600c6020528060005260406000206000915054906101000a900460ff1681565b6107d3611271565b6107df81600b546112ef565b600b60008154809291906107f2906125e1565b919050555050565b61081583838360405180602001604052806000815250610b8c565b505050565b6000806108268361130d565b9050600073ffffffffffffffffffffffffffffffffffffffff168173ffffffffffffffffffffffffffffffffffffffff1603610897576040517f08c379a000000000000000000000000000000000000000000000000000000000815260040161088e90612675565b60405180910390fd5b80915050919050565b600780546108ad906123cb565b80601f01602080910402602001604051908101604052809291908181526020018280546108d9906123cb565b80156109265780601f106108fb57610100808354040283529160200191610926565b820191906000526020600020905b81548152906001019060200180831161090957829003601f168201915b505050505081565b60008073ffffffffffffffffffffffffffffffffffffffff168273ffffffffffffffffffffffffffffffffffffffff160361099e576040517f08c379a000000000000000000000000000000000000000000000000000000000815260040161099590612707565b60405180910390fd5b600360008373ffffffffffffffffffffffffffffffffffffffff1673ffffffffffffffffffffffffffffffffffffffff168152602001908152602001600020549050919050565b6060600a80546109f4906123cb565b80601f0160208091040260200160405190810160405280929190818152602001828054610a20906123cb565b8015610a6d5780601f10610a4257610100808354040283529160200191610a6d565b820191906000526020600020905b815481529060010190602001808311610a5057829003601f168201915b5050505050905090565b610a7f611271565b610a89600061134a565b565b6000600660009054906101000a900473ffffffffffffffffffffffffffffffffffffffff16905090565b606060018054610ac4906123cb565b80601f0160208091040260200160405190810160405280929190818152602001828054610af0906123cb565b8015610b3d5780601f10610b1257610100808354040283529160200191610b3d565b820191906000526020600020905b815481529060010190602001808311610b2057829003601f168201915b5050505050905090565b610b59610b52610e22565b8383611410565b5050565b6001600c600083815260200190815260200160002060006101000a81548160ff02191690831515021790555050565b610b9d610b97610e22565b83610ee3565b610bdc576040517f08c379a0000000000000000000000000000000000000000000000000000000008152600401610bd390612592565b60405180910390fd5b610be88484848461157c565b50505050565b6060610bf982610dd7565b6000610c036115d8565b90506000815111610c235760405180602001604052806000815250610c4e565b80610c2d846115ef565b604051602001610c3e929190612763565b6040516020818303038152906040525b915050919050565b6000600560008473ffffffffffffffffffffffffffffffffffffffff1673ffffffffffffffffffffffffffffffffffffffff16815260200190815260200160002060008373ffffffffffffffffffffffffffffffffffffffff1673ffffffffffffffffffffffffffffffffffffffff16815260200190815260200160002060009054906101000a900460ff16905092915050565b610cf2611271565b600073ffffffffffffffffffffffffffffffffffffffff168173ffffffffffffffffffffffffffffffffffffffff1603610d61576040517f08c379a0000000000000000000000000000000000000000000000000000000008152600401610d58906127f9565b60405180910390fd5b610d6a8161134a565b50565b60007f01ffc9a7000000000000000000000000000000000000000000000000000000007bffffffffffffffffffffffffffffffffffffffffffffffffffffffff1916827bffffffffffffffffffffffffffffffffffffffffffffffffffffffff1916149050919050565b610de0816116bd565b610e1f576040517f08c379a0000000000000000000000000000000000000000000000000000000008152600401610e1690612675565b60405180910390fd5b50565b600033905090565b816004600083815260200190815260200160002060006101000a81548173ffffffffffffffffffffffffffffffffffffffff021916908373ffffffffffffffffffffffffffffffffffffffff160217905550808273ffffffffffffffffffffffffffffffffffffffff16610e9d8361081a565b73ffffffffffffffffffffffffffffffffffffffff167f8c5be1e5ebec7d5bd14f71427d1e84f3dd0314c0f7b2291e5b200ac8c7c3b92560405160405180910390a45050565b600080610eef8361081a565b90508073ffffffffffffffffffffffffffffffffffffffff168473ffffffffffffffffffffffffffffffffffffffff161480610f315750610f308185610c56565b5b80610f6f57508373ffffffffffffffffffffffffffffffffffffffff16610f57846105d2565b73ffffffffffffffffffffffffffffffffffffffff16145b91505092915050565b8273ffffffffffffffffffffffffffffffffffffffff16610f988261081a565b73ffffffffffffffffffffffffffffffffffffffff1614610fee576040517f08c379a0000000000000000000000000000000000000000000000000000000008152600401610fe59061288b565b60405180910390fd5b600073ffffffffffffffffffffffffffffffffffffffff168273ffffffffffffffffffffffffffffffffffffffff160361105d576040517f08c379a00000000000000000000000000000000000000000000000000000000081526004016110549061291d565b60405180910390fd5b61106a83838360016116fe565b8273ffffffffffffffffffffffffffffffffffffffff1661108a8261081a565b73ffffffffffffffffffffffffffffffffffffffff16146110e0576040517f08c379a00000000000000000000000000000000000000000000000000000000081526004016110d79061288b565b60405180910390fd5b6004600082815260200190815260200160002060006101000a81549073ffffffffffffffffffffffffffffffffffffffff02191690556001600360008573ffffffffffffffffffffffffffffffffffffffff1673ffffffffffffffffffffffffffffffffffffffff168152602001908152602001600020600082825403925050819055506001600360008473ffffffffffffffffffffffffffffffffffffffff1673ffffffffffffffffffffffffffffffffffffffff16815260200190815260200160002060008282540192505081905550816002600083815260200190815260200160002060006101000a81548173ffffffffffffffffffffffffffffffffffffffff021916908373ffffffffffffffffffffffffffffffffffffffff160217905550808273ffffffffffffffffffffffffffffffffffffffff168473ffffffffffffffffffffffffffffffffffffffff167fddf252ad1be2c89b69c2b068fc378daa952ba7f163c4a11628f55a4df523b3ef60405160405180910390a461126c8383836001611824565b505050565b611279610e22565b73ffffffffffffffffffffffffffffffffffffffff16611297610a8b565b73ffffffffffffffffffffffffffffffffffffffff16146112ed576040517f08c379a00000000000000000000000000000000000000000000000000000000081526004016112e490612989565b60405180910390fd5b565b61130982826040518060200160405280600081525061182a565b5050565b60006002600083815260200190815260200160002060009054906101000a900473ffffffffffffffffffffffffffffffffffffffff169050919050565b6000600660009054906101000a900473ffffffffffffffffffffffffffffffffffffffff16905081600660006101000a81548173ffffffffffffffffffffffffffffffffffffffff021916908373ffffffffffffffffffffffffffffffffffffffff1602179055508173ffffffffffffffffffffffffffffffffffffffff168173ffffffffffffffffffffffffffffffffffffffff167f8be0079c531659141344cd1fd0a4f28419497f9722a3daafe3b4186f6b6457e060405160405180910390a35050565b8173ffffffffffffffffffffffffffffffffffffffff168373ffffffffffffffffffffffffffffffffffffffff160361147e576040517f08c379a0000000000000000000000000000000000000000000000000000000008152600401611475906129f5565b60405180910390fd5b80600560008573ffffffffffffffffffffffffffffffffffffffff1673ffffffffffffffffffffffffffffffffffffffff16815260200190815260200160002060008473ffffffffffffffffffffffffffffffffffffffff1673ffffffffffffffffffffffffffffffffffffffff16815260200190815260200160002060006101000a81548160ff0219169083151502179055508173ffffffffffffffffffffffffffffffffffffffff168373ffffffffffffffffffffffffffffffffffffffff167f17307eab39ab6107e8899845ad3d59bd9653f200f220920489ca2b5937696c318360405161156f9190611e53565b60405180910390a3505050565b611587848484610f78565b61159384848484611885565b6115d2576040517f08c379a00000000000000000000000000000000000000000000000000000000081526004016115c990612a87565b60405180910390fd5b50505050565b606060405180602001604052806000815250905090565b6060600060016115fe84611a0c565b01905060008167ffffffffffffffff81111561161d5761161c6121ae565b5b6040519080825280601f01601f19166020018201604052801561164f5781602001600182028036833780820191505090505b509050600082602001820190505b6001156116b2578080600190039150507f3031323334353637383961626364656600000000000000000000000000000000600a86061a8153600a85816116a6576116a5612aa7565b5b0494506000850361165d575b819350505050919050565b60008073ffffffffffffffffffffffffffffffffffffffff166116df8361130d565b73ffffffffffffffffffffffffffffffffffffffff1614159050919050565b600181111561181e57600073ffffffffffffffffffffffffffffffffffffffff168473ffffffffffffffffffffffffffffffffffffffff16146117925780600360008673ffffffffffffffffffffffffffffffffffffffff1673ffffffffffffffffffffffffffffffffffffffff168152602001908152602001600020600082825461178a9190612ad6565b925050819055505b600073ffffffffffffffffffffffffffffffffffffffff168373ffffffffffffffffffffffffffffffffffffffff161461181d5780600360008573ffffffffffffffffffffffffffffffffffffffff1673ffffffffffffffffffffffffffffffffffffffff16815260200190815260200160002060008282546118159190612b0a565b925050819055505b5b50505050565b50505050565b6118348383611b5f565b6118416000848484611885565b611880576040517f08c379a000000000000000000000000000000000000000000000000000000000815260040161187790612a87565b60405180910390fd5b505050565b60006118a68473ffffffffffffffffffffffffffffffffffffffff16611d7c565b156119ff578373ffffffffffffffffffffffffffffffffffffffff1663150b7a026118cf610e22565b8786866040518563ffffffff1660e01b81526004016118f19493929190612bb5565b6020604051808303816000875af192505050801561192d57506040513d601f19601f8201168201806040525081019061192a9190612c16565b60015b6119af573d806000811461195d576040519150601f19603f3d011682016040523d82523d6000602084013e611962565b606091505b5060008151036119a7576040517f08c379a000000000000000000000000000000000000000000000000000000000815260040161199e90612a87565b60405180910390fd5b805181602001fd5b63150b7a0260e01b7bffffffffffffffffffffffffffffffffffffffffffffffffffffffff1916817bffffffffffffffffffffffffffffffffffffffffffffffffffffffff191614915050611a04565b600190505b949350505050565b600080600090507a184f03e93ff9f4daa797ed6e38ed64bf6a1f0100000000000000008310611a6a577a184f03e93ff9f4daa797ed6e38ed64bf6a1f0100000000000000008381611a6057611a5f612aa7565b5b0492506040810190505b6d04ee2d6d415b85acef81000000008310611aa7576d04ee2d6d415b85acef81000000008381611a9d57611a9c612aa7565b5b0492506020810190505b662386f26fc100008310611ad657662386f26fc100008381611acc57611acb612aa7565b5b0492506010810190505b6305f5e1008310611aff576305f5e1008381611af557611af4612aa7565b5b0492506008810190505b6127108310611b24576127108381611b1a57611b19612aa7565b5b0492506004810190505b60648310611b475760648381611b3d57611b3c612aa7565b5b0492506002810190505b600a8310611b56576001810190505b80915050919050565b600073ffffffffffffffffffffffffffffffffffffffff168273ffffffffffffffffffffffffffffffffffffffff1603611bce576040517f08c379a0000000000000000000000000000000000000000000000000000000008152600401611bc590612c8f565b60405180910390fd5b611bd7816116bd565b15611c17576040517f08c379a0000000000000000000000000000000000000000000000000000000008152600401611c0e90612cfb565b60405180910390fd5b611c256000838360016116fe565b611c2e816116bd565b15611c6e576040517f08c379a0000000000000000000000000000000000000000000000000000000008152600401611c6590612cfb565b60405180910390fd5b6001600360008473ffffffffffffffffffffffffffffffffffffffff1673ffffffffffffffffffffffffffffffffffffffff16815260200190815260200160002060008282540192505081905550816002600083815260200190815260200160002060006101000a81548173ffffffffffffffffffffffffffffffffffffffff021916908373ffffffffffffffffffffffffffffffffffffffff160217905550808273ffffffffffffffffffffffffffffffffffffffff16600073ffffffffffffffffffffffffffffffffffffffff167fddf252ad1be2c89b69c2b068fc378daa952ba7f163c4a11628f55a4df523b3ef60405160405180910390a4611d78600083836001611824565b5050565b6000808273ffffffffffffffffffffffffffffffffffffffff163b119050919050565b6000604051905090565b600080fd5b600080fd5b60007fffffffff0000000000000000000000000000000000000000000000000000000082169050919050565b611de881611db3565b8114611df357600080fd5b50565b600081359050611e0581611ddf565b92915050565b600060208284031215611e2157611e20611da9565b5b6000611e2f84828501611df6565b91505092915050565b60008115159050919050565b611e4d81611e38565b82525050565b6000602082019050611e686000830184611e44565b92915050565b600081519050919050565b600082825260208201905092915050565b60005b83811015611ea8578082015181840152602081019050611e8d565b83811115611eb7576000848401525b50505050565b6000601f19601f8301169050919050565b6000611ed982611e6e565b611ee38185611e79565b9350611ef3818560208601611e8a565b611efc81611ebd565b840191505092915050565b60006020820190508181036000830152611f218184611ece565b905092915050565b6000819050919050565b611f3c81611f29565b8114611f4757600080fd5b50565b600081359050611f5981611f33565b92915050565b600060208284031215611f7557611f74611da9565b5b6000611f8384828501611f4a565b91505092915050565b600073ffffffffffffffffffffffffffffffffffffffff82169050919050565b6000611fb782611f8c565b9050919050565b611fc781611fac565b82525050565b6000602082019050611fe26000830184611fbe565b92915050565b611ff181611fac565b8114611ffc57600080fd5b50565b60008135905061200e81611fe8565b92915050565b6000806040838503121561202b5761202a611da9565b5b600061203985828601611fff565b925050602061204a85828601611f4a565b9150509250929050565b600063ffffffff82169050919050565b61206d81612054565b82525050565b60006020820190506120886000830184612064565b92915050565b61209781611f29565b82525050565b60006020820190506120b2600083018461208e565b92915050565b6000806000606084860312156120d1576120d0611da9565b5b60006120df86828701611fff565b93505060206120f086828701611fff565b925050604061210186828701611f4a565b9150509250925092565b60006020828403121561212157612120611da9565b5b600061212f84828501611fff565b91505092915050565b61214181611e38565b811461214c57600080fd5b50565b60008135905061215e81612138565b92915050565b6000806040838503121561217b5761217a611da9565b5b600061218985828601611fff565b925050602061219a8582860161214f565b9150509250929050565b600080fd5b600080fd5b7f4e487b7100000000000000000000000000000000000000000000000000000000600052604160045260246000fd5b6121e682611ebd565b810181811067ffffffffffffffff82111715612205576122046121ae565b5b80604052505050565b6000612218611d9f565b905061222482826121dd565b919050565b600067ffffffffffffffff821115612244576122436121ae565b5b61224d82611ebd565b9050602081019050919050565b82818337600083830152505050565b600061227c61227784612229565b61220e565b905082815260208101848484011115612298576122976121a9565b5b6122a384828561225a565b509392505050565b600082601f8301126122c0576122bf6121a4565b5b81356122d0848260208601612269565b91505092915050565b600080600080608085870312156122f3576122f2611da9565b5b600061230187828801611fff565b945050602061231287828801611fff565b935050604061232387828801611f4a565b925050606085013567ffffffffffffffff81111561234457612343611dae565b5b612350878288016122ab565b91505092959194509250565b6000806040838503121561237357612372611da9565b5b600061238185828601611fff565b925050602061239285828601611fff565b9150509250929050565b7f4e487b7100000000000000000000000000000000000000000000000000000000600052602260045260246000fd5b600060028204905060018216806123e357607f821691505b6020821081036123f6576123f561239c565b5b50919050565b7f4552433732313a20617070726f76616c20746f2063757272656e74206f776e6560008201527f7200000000000000000000000000000000000000000000000000000000000000602082015250565b6000612458602183611e79565b9150612463826123fc565b604082019050919050565b600060208201905081810360008301526124878161244b565b9050919050565b7f4552433732313a20617070726f76652063616c6c6572206973206e6f7420746f60008201527f6b656e206f776e6572206f7220617070726f76656420666f7220616c6c000000602082015250565b60006124ea603d83611e79565b91506124f58261248e565b604082019050919050565b60006020820190508181036000830152612519816124dd565b9050919050565b7f4552433732313a2063616c6c6572206973206e6f7420746f6b656e206f776e6560008201527f72206f7220617070726f76656400000000000000000000000000000000000000602082015250565b600061257c602d83611e79565b915061258782612520565b604082019050919050565b600060208201905081810360008301526125ab8161256f565b9050919050565b7f4e487b7100000000000000000000000000000000000000000000000000000000600052601160045260246000fd5b60006125ec82611f29565b91507fffffffffffffffffffffffffffffffffffffffffffffffffffffffffffffffff820361261e5761261d6125b2565b5b600182019050919050565b7f4552433732313a20696e76616c696420746f6b656e2049440000000000000000600082015250565b600061265f601883611e79565b915061266a82612629565b602082019050919050565b6000602082019050818103600083015261268e81612652565b9050919050565b7f4552433732313a2061646472657373207a65726f206973206e6f74206120766160008201527f6c6964206f776e65720000000000000000000000000000000000000000000000602082015250565b60006126f1602983611e79565b91506126fc82612695565b604082019050919050565b60006020820190508181036000830152612720816126e4565b9050919050565b600081905092915050565b600061273d82611e6e565b6127478185612727565b9350612757818560208601611e8a565b80840191505092915050565b600061276f8285612732565b915061277b8284612732565b91508190509392505050565b7f4f776e61626c653a206e6577206f776e657220697320746865207a65726f206160008201527f6464726573730000000000000000000000000000000000000000000000000000602082015250565b60006127e3602683611e79565b91506127ee82612787565b604082019050919050565b60006020820190508181036000830152612812816127d6565b9050919050565b7f4552433732313a207472616e736665722066726f6d20696e636f72726563742060008201527f6f776e6572000000000000000000000000000000000000000000000000000000602082015250565b6000612875602583611e79565b915061288082612819565b604082019050919050565b600060208201905081810360008301526128a481612868565b9050919050565b7f4552433732313a207472616e7366657220746f20746865207a65726f2061646460008201527f7265737300000000000000000000000000000000000000000000000000000000602082015250565b6000612907602483611e79565b9150612912826128ab565b604082019050919050565b60006020820190508181036000830152612936816128fa565b9050919050565b7f4f776e61626c653a2063616c6c6572206973206e6f7420746865206f776e6572600082015250565b6000612973602083611e79565b915061297e8261293d565b602082019050919050565b600060208201905081810360008301526129a281612966565b9050919050565b7f4552433732313a20617070726f766520746f2063616c6c657200000000000000600082015250565b60006129df601983611e79565b91506129ea826129a9565b602082019050919050565b60006020820190508181036000830152612a0e816129d2565b9050919050565b7f4552433732313a207472616e7366657220746f206e6f6e20455243373231526560008201527f63656976657220696d706c656d656e7465720000000000000000000000000000602082015250565b6000612a71603283611e79565b9150612a7c82612a15565b604082019050919050565b60006020820190508181036000830152612aa081612a64565b9050919050565b7f4e487b7100000000000000000000000000000000000000000000000000000000600052601260045260246000fd5b6000612ae182611f29565b9150612aec83611f29565b925082821015612aff57612afe6125b2565b5b828203905092915050565b6000612b1582611f29565b9150612b2083611f29565b9250827fffffffffffffffffffffffffffffffffffffffffffffffffffffffffffffffff03821115612b5557612b546125b2565b5b828201905092915050565b600081519050919050565b600082825260208201905092915050565b6000612b8782612b60565b612b918185612b6b565b9350612ba1818560208601611e8a565b612baa81611ebd565b840191505092915050565b6000608082019050612bca6000830187611fbe565b612bd76020830186611fbe565b612be4604083018561208e565b8181036060830152612bf68184612b7c565b905095945050505050565b600081519050612c1081611ddf565b92915050565b600060208284031215612c2c57612c2b611da9565b5b6000612c3a84828501612c01565b91505092915050565b7f4552433732313a206d696e7420746f20746865207a65726f2061646472657373600082015250565b6000612c79602083611e79565b9150612c8482612c43565b602082019050919050565b60006020820190508181036000830152612ca881612c6c565b9050919050565b7f4552433732313a20746f6b656e20616c7265616479206d696e74656400000000600082015250565b6000612ce5601c83611e79565b9150612cf082612caf565b602082019050919050565b60006020820190508181036000830152612d1481612cd8565b905091905056fea2646970667358221220a8243af98a1cb7fae722d42515dbbadf46407bc8987aa1116506c77ea8edcf4864736f6c634300080e0033a264697066735822122008fb005bdac160a516052103fa879e61dd4146e432c54b2e1a3e1bf4aaa4cd2c64736f6c634300080e0033",
  "linkReferences": {},
  "deployedLinkReferences": {}
}